{
  "_format": "hh-sol-artifact-1",
  "contractName": "Lottery",
  "sourceName": "contracts/Lottery.sol",
  "abi": [
    {
      "inputs": [
        {
          "internalType": "address",
          "name": "_paymentTokenContractAddress",
          "type": "address"
        },
        {
          "internalType": "uint256",
          "name": "_purchaseRatio",
          "type": "uint256"
        },
        {
          "internalType": "uint256",
          "name": "_betPrice",
          "type": "uint256"
        },
        {
          "internalType": "uint256",
          "name": "_betFee",
          "type": "uint256"
        }
      ],
      "stateMutability": "nonpayable",
      "type": "constructor"
    },
    {
      "inputs": [
        {
          "internalType": "address",
          "name": "owner",
          "type": "address"
        }
      ],
      "name": "OwnableInvalidOwner",
      "type": "error"
    },
    {
      "inputs": [
        {
          "internalType": "address",
          "name": "account",
          "type": "address"
        }
      ],
      "name": "OwnableUnauthorizedAccount",
      "type": "error"
    },
    {
      "anonymous": false,
      "inputs": [
        {
          "indexed": true,
          "internalType": "address",
          "name": "previousOwner",
          "type": "address"
        },
        {
          "indexed": true,
          "internalType": "address",
          "name": "newOwner",
          "type": "address"
        }
      ],
      "name": "OwnershipTransferred",
      "type": "event"
    },
    {
      "inputs": [],
      "name": "bet",
      "outputs": [],
      "stateMutability": "nonpayable",
      "type": "function"
    },
    {
      "inputs": [],
      "name": "betFee",
      "outputs": [
        {
          "internalType": "uint256",
          "name": "",
          "type": "uint256"
        }
      ],
      "stateMutability": "view",
      "type": "function"
    },
    {
      "inputs": [
        {
          "internalType": "uint256",
          "name": "times",
          "type": "uint256"
        }
      ],
      "name": "betMany",
      "outputs": [],
      "stateMutability": "nonpayable",
      "type": "function"
    },
    {
      "inputs": [],
      "name": "betPrice",
      "outputs": [
        {
          "internalType": "uint256",
          "name": "",
          "type": "uint256"
        }
      ],
      "stateMutability": "view",
      "type": "function"
    },
    {
      "inputs": [],
      "name": "betsClosingTime",
      "outputs": [
        {
          "internalType": "uint256",
          "name": "",
          "type": "uint256"
        }
      ],
      "stateMutability": "view",
      "type": "function"
    },
    {
      "inputs": [],
      "name": "betsOpen",
      "outputs": [
        {
          "internalType": "bool",
          "name": "",
          "type": "bool"
        }
      ],
      "stateMutability": "view",
      "type": "function"
    },
    {
      "inputs": [],
      "name": "closeLottery",
      "outputs": [],
      "stateMutability": "nonpayable",
      "type": "function"
    },
    {
      "inputs": [],
      "name": "getRandomNumber",
      "outputs": [
        {
          "internalType": "uint256",
          "name": "randomNumber",
          "type": "uint256"
        }
      ],
      "stateMutability": "view",
      "type": "function"
    },
    {
      "inputs": [
        {
          "internalType": "uint256",
          "name": "closingTime",
          "type": "uint256"
        }
      ],
      "name": "openBets",
      "outputs": [],
      "stateMutability": "nonpayable",
      "type": "function"
    },
    {
      "inputs": [],
      "name": "owner",
      "outputs": [
        {
          "internalType": "address",
          "name": "",
          "type": "address"
        }
      ],
      "stateMutability": "view",
      "type": "function"
    },
    {
      "inputs": [],
      "name": "ownerPool",
      "outputs": [
        {
          "internalType": "uint256",
          "name": "",
          "type": "uint256"
        }
      ],
      "stateMutability": "view",
      "type": "function"
    },
    {
      "inputs": [
        {
          "internalType": "uint256",
          "name": "amount",
          "type": "uint256"
        }
      ],
      "name": "ownerWithdraw",
      "outputs": [],
      "stateMutability": "nonpayable",
      "type": "function"
    },
    {
      "inputs": [],
      "name": "paymentToken",
      "outputs": [
        {
          "internalType": "contract LotteryToken",
          "name": "",
          "type": "address"
        }
      ],
      "stateMutability": "view",
      "type": "function"
    },
    {
      "inputs": [
        {
          "internalType": "address",
          "name": "",
          "type": "address"
        }
      ],
      "name": "prize",
      "outputs": [
        {
          "internalType": "uint256",
          "name": "",
          "type": "uint256"
        }
      ],
      "stateMutability": "view",
      "type": "function"
    },
    {
      "inputs": [],
      "name": "prizePool",
      "outputs": [
        {
          "internalType": "uint256",
          "name": "",
          "type": "uint256"
        }
      ],
      "stateMutability": "view",
      "type": "function"
    },
    {
      "inputs": [
        {
          "internalType": "uint256",
          "name": "amount",
          "type": "uint256"
        }
      ],
      "name": "prizeWithdraw",
      "outputs": [],
      "stateMutability": "nonpayable",
      "type": "function"
    },
    {
      "inputs": [],
      "name": "purchaseRatio",
      "outputs": [
        {
          "internalType": "uint256",
          "name": "",
          "type": "uint256"
        }
      ],
      "stateMutability": "view",
      "type": "function"
    },
    {
      "inputs": [],
      "name": "purchaseTokens",
      "outputs": [],
      "stateMutability": "payable",
      "type": "function"
    },
    {
      "inputs": [],
      "name": "renounceOwnership",
      "outputs": [],
      "stateMutability": "nonpayable",
      "type": "function"
    },
    {
      "inputs": [
        {
          "internalType": "uint256",
          "name": "amount",
          "type": "uint256"
        }
      ],
      "name": "returnTokens",
      "outputs": [],
      "stateMutability": "nonpayable",
      "type": "function"
    },
    {
      "inputs": [
        {
          "internalType": "address",
          "name": "newOwner",
          "type": "address"
        }
      ],
      "name": "transferOwnership",
      "outputs": [],
      "stateMutability": "nonpayable",
      "type": "function"
    }
  ],
  "bytecode": "0x60806040523480156200001157600080fd5b5060405162001a7138038062001a71833981810160405281019062000037919062000288565b33600073ffffffffffffffffffffffffffffffffffffffff168173ffffffffffffffffffffffffffffffffffffffff1603620000ad5760006040517f1e4fbdf7000000000000000000000000000000000000000000000000000000008152600401620000a491906200030b565b60405180910390fd5b620000be816200011f60201b60201c565b5083600160006101000a81548173ffffffffffffffffffffffffffffffffffffffff021916908373ffffffffffffffffffffffffffffffffffffffff1602179055508260028190555081600381905550806004819055505050505062000328565b60008060009054906101000a900473ffffffffffffffffffffffffffffffffffffffff169050816000806101000a81548173ffffffffffffffffffffffffffffffffffffffff021916908373ffffffffffffffffffffffffffffffffffffffff1602179055508173ffffffffffffffffffffffffffffffffffffffff168173ffffffffffffffffffffffffffffffffffffffff167f8be0079c531659141344cd1fd0a4f28419497f9722a3daafe3b4186f6b6457e060405160405180910390a35050565b600080fd5b600073ffffffffffffffffffffffffffffffffffffffff82169050919050565b60006200021582620001e8565b9050919050565b620002278162000208565b81146200023357600080fd5b50565b60008151905062000247816200021c565b92915050565b6000819050919050565b62000262816200024d565b81146200026e57600080fd5b50565b600081519050620002828162000257565b92915050565b60008060008060808587031215620002a557620002a4620001e3565b5b6000620002b58782880162000236565b9450506020620002c88782880162000271565b9350506040620002db8782880162000271565b9250506060620002ee8782880162000271565b91505092959194509250565b620003058162000208565b82525050565b6000602082019050620003226000830184620002fa565b92915050565b61173980620003386000396000f3fe60806040526004361061012a5760003560e01c8063719ce73e116100ab57806395cadc471161006f57806395cadc4714610361578063990a49f51461038c578063cfd8a175146103b5578063d1b258ff146103e0578063dbdff2c11461040b578063f2fde38b146104365761012a565b8063719ce73e1461027a578063729e91e9146102a5578063841e6ce9146102ce5780638adf9c1f146102f95780638da5cb5b146103365761012a565b806333f707d1116100f257806333f707d1146101d15780633ae1786f146101fa5780633cc121e6146102235780636fd098161461024c578063715018a6146102635761012a565b806311610c251461012f57806318c34965146101465780632b65e040146101715780633013ce291461019c5780633290ce29146101c7575b600080fd5b34801561013b57600080fd5b5061014461045f565b005b34801561015257600080fd5b5061015b610608565b6040516101689190610f7f565b60405180910390f35b34801561017d57600080fd5b5061018661060e565b6040516101939190610f7f565b60405180910390f35b3480156101a857600080fd5b506101b1610614565b6040516101be9190611019565b60405180910390f35b6101cf61063a565b005b3480156101dd57600080fd5b506101f860048036038101906101f39190611065565b6106d8565b005b34801561020657600080fd5b50610221600480360381019061021c9190611065565b6107e2565b005b34801561022f57600080fd5b5061024a60048036038101906102459190611065565b6108c8565b005b34801561025857600080fd5b50610261610a44565b005b34801561026f57600080fd5b50610278610bd3565b005b34801561028657600080fd5b5061028f610be7565b60405161029c9190610f7f565b60405180910390f35b3480156102b157600080fd5b506102cc60048036038101906102c79190611065565b610bed565b005b3480156102da57600080fd5b506102e3610c22565b6040516102f09190610f7f565b60405180910390f35b34801561030557600080fd5b50610320600480360381019061031b91906110d0565b610c28565b60405161032d9190610f7f565b60405180910390f35b34801561034257600080fd5b5061034b610c40565b604051610358919061110c565b60405180910390f35b34801561036d57600080fd5b50610376610c69565b6040516103839190610f7f565b60405180910390f35b34801561039857600080fd5b506103b360048036038101906103ae9190611065565b610c6f565b005b3480156103c157600080fd5b506103ca610d2e565b6040516103d79190610f7f565b60405180910390f35b3480156103ec57600080fd5b506103f5610d34565b6040516104029190611142565b60405180910390f35b34801561041757600080fd5b50610420610d47565b60405161042d9190610f7f565b60405180910390f35b34801561044257600080fd5b5061045d600480360381019061045891906110d0565b610d4f565b005b600760009054906101000a900460ff16801561047c575060085442105b6104bb576040517f08c379a00000000000000000000000000000000000000000000000000000000081526004016104b2906111ba565b60405180910390fd5b600454600660008282546104cf9190611209565b92505081905550600354600560008282546104ea9190611209565b92505081905550600a339080600181540180825580915050600190039060005260206000200160009091909190916101000a81548173ffffffffffffffffffffffffffffffffffffffff021916908373ffffffffffffffffffffffffffffffffffffffff160217905550600160009054906101000a900473ffffffffffffffffffffffffffffffffffffffff1673ffffffffffffffffffffffffffffffffffffffff166323b872dd33306004546003546105a49190611209565b6040518463ffffffff1660e01b81526004016105c29392919061123d565b6020604051808303816000875af11580156105e1573d6000803e3d6000fd5b505050506040513d601f19601f8201168201806040525081019061060591906112a0565b50565b60085481565b60065481565b600160009054906101000a900473ffffffffffffffffffffffffffffffffffffffff1681565b600160009054906101000a900473ffffffffffffffffffffffffffffffffffffffff1673ffffffffffffffffffffffffffffffffffffffff166340c10f19336002543461068791906112cd565b6040518363ffffffff1660e01b81526004016106a492919061130f565b600060405180830381600087803b1580156106be57600080fd5b505af11580156106d2573d6000803e3d6000fd5b50505050565b6106e0610dd5565b600654811115610725576040517f08c379a000000000000000000000000000000000000000000000000000000000815260040161071c90611384565b60405180910390fd5b806006600082825461073791906113a4565b92505081905550600160009054906101000a900473ffffffffffffffffffffffffffffffffffffffff1673ffffffffffffffffffffffffffffffffffffffff1663a9059cbb33836040518363ffffffff1660e01b815260040161079b92919061130f565b6020604051808303816000875af11580156107ba573d6000803e3d6000fd5b505050506040513d601f19601f820116820180604052508101906107de91906112a0565b5050565b600160009054906101000a900473ffffffffffffffffffffffffffffffffffffffff1673ffffffffffffffffffffffffffffffffffffffff166379cc679033836040518363ffffffff1660e01b815260040161083f92919061130f565b600060405180830381600087803b15801561085957600080fd5b505af115801561086d573d6000803e3d6000fd5b505050503373ffffffffffffffffffffffffffffffffffffffff166108fc600254836108999190611407565b9081150290604051600060405180830381858888f193505050501580156108c4573d6000803e3d6000fd5b5050565b600960003373ffffffffffffffffffffffffffffffffffffffff1673ffffffffffffffffffffffffffffffffffffffff1681526020019081526020016000205481111561094a576040517f08c379a000000000000000000000000000000000000000000000000000000000815260040161094190611484565b60405180910390fd5b80600960003373ffffffffffffffffffffffffffffffffffffffff1673ffffffffffffffffffffffffffffffffffffffff168152602001908152602001600020600082825461099991906113a4565b92505081905550600160009054906101000a900473ffffffffffffffffffffffffffffffffffffffff1673ffffffffffffffffffffffffffffffffffffffff1663a9059cbb33836040518363ffffffff1660e01b81526004016109fd92919061130f565b6020604051808303816000875af1158015610a1c573d6000803e3d6000fd5b505050506040513d601f19601f82011682018060405250810190610a4091906112a0565b5050565b600854421015610a89576040517f08c379a0000000000000000000000000000000000000000000000000000000008152600401610a80906114f0565b60405180910390fd5b600760009054906101000a900460ff16610ad8576040517f08c379a0000000000000000000000000000000000000000000000000000000008152600401610acf9061155c565b60405180910390fd5b6000600a805490501115610bb6576000600a80549050610af6610d47565b610b00919061157c565b90506000600a8281548110610b1857610b176115ad565b5b9060005260206000200160009054906101000a900473ffffffffffffffffffffffffffffffffffffffff169050600554600960008373ffffffffffffffffffffffffffffffffffffffff1673ffffffffffffffffffffffffffffffffffffffff1681526020019081526020016000206000828254610b969190611209565b925050819055506000600581905550600a6000610bb39190610f28565b50505b6000600760006101000a81548160ff021916908315150217905550565b610bdb610dd5565b610be56000610e5c565b565b60055481565b60008111610bfa57600080fd5b5b6000811115610c1f57610c0c61045f565b8080610c17906115dc565b915050610bfb565b50565b60045481565b60096020528060005260406000206000915090505481565b60008060009054906101000a900473ffffffffffffffffffffffffffffffffffffffff16905090565b60025481565b610c77610dd5565b600760009054906101000a900460ff1615610cc7576040517f08c379a0000000000000000000000000000000000000000000000000000000008152600401610cbe90611651565b60405180910390fd5b428111610d09576040517f08c379a0000000000000000000000000000000000000000000000000000000008152600401610d00906116e3565b60405180910390fd5b806008819055506001600760006101000a81548160ff02191690831515021790555050565b60035481565b600760009054906101000a900460ff1681565b600044905090565b610d57610dd5565b600073ffffffffffffffffffffffffffffffffffffffff168173ffffffffffffffffffffffffffffffffffffffff1603610dc95760006040517f1e4fbdf7000000000000000000000000000000000000000000000000000000008152600401610dc0919061110c565b60405180910390fd5b610dd281610e5c565b50565b610ddd610f20565b73ffffffffffffffffffffffffffffffffffffffff16610dfb610c40565b73ffffffffffffffffffffffffffffffffffffffff1614610e5a57610e1e610f20565b6040517f118cdaa7000000000000000000000000000000000000000000000000000000008152600401610e51919061110c565b60405180910390fd5b565b60008060009054906101000a900473ffffffffffffffffffffffffffffffffffffffff169050816000806101000a81548173ffffffffffffffffffffffffffffffffffffffff021916908373ffffffffffffffffffffffffffffffffffffffff1602179055508173ffffffffffffffffffffffffffffffffffffffff168173ffffffffffffffffffffffffffffffffffffffff167f8be0079c531659141344cd1fd0a4f28419497f9722a3daafe3b4186f6b6457e060405160405180910390a35050565b600033905090565b5080546000825590600052602060002090810190610f469190610f49565b50565b5b80821115610f62576000816000905550600101610f4a565b5090565b6000819050919050565b610f7981610f66565b82525050565b6000602082019050610f946000830184610f70565b92915050565b600073ffffffffffffffffffffffffffffffffffffffff82169050919050565b6000819050919050565b6000610fdf610fda610fd584610f9a565b610fba565b610f9a565b9050919050565b6000610ff182610fc4565b9050919050565b600061100382610fe6565b9050919050565b61101381610ff8565b82525050565b600060208201905061102e600083018461100a565b92915050565b600080fd5b61104281610f66565b811461104d57600080fd5b50565b60008135905061105f81611039565b92915050565b60006020828403121561107b5761107a611034565b5b600061108984828501611050565b91505092915050565b600061109d82610f9a565b9050919050565b6110ad81611092565b81146110b857600080fd5b50565b6000813590506110ca816110a4565b92915050565b6000602082840312156110e6576110e5611034565b5b60006110f4848285016110bb565b91505092915050565b61110681611092565b82525050565b600060208201905061112160008301846110fd565b92915050565b60008115159050919050565b61113c81611127565b82525050565b60006020820190506111576000830184611133565b92915050565b600082825260208201905092915050565b7f4c6f747465727920697320636c6f736564000000000000000000000000000000600082015250565b60006111a460118361115d565b91506111af8261116e565b602082019050919050565b600060208201905081810360008301526111d381611197565b9050919050565b7f4e487b7100000000000000000000000000000000000000000000000000000000600052601160045260246000fd5b600061121482610f66565b915061121f83610f66565b9250828201905080821115611237576112366111da565b5b92915050565b600060608201905061125260008301866110fd565b61125f60208301856110fd565b61126c6040830184610f70565b949350505050565b61127d81611127565b811461128857600080fd5b50565b60008151905061129a81611274565b92915050565b6000602082840312156112b6576112b5611034565b5b60006112c48482850161128b565b91505092915050565b60006112d882610f66565b91506112e383610f66565b92508282026112f181610f66565b91508282048414831517611308576113076111da565b5b5092915050565b600060408201905061132460008301856110fd565b6113316020830184610f70565b9392505050565b7f4e6f7420656e6f756768206665657320636f6c6c656374656400000000000000600082015250565b600061136e60198361115d565b915061137982611338565b602082019050919050565b6000602082019050818103600083015261139d81611361565b9050919050565b60006113af82610f66565b91506113ba83610f66565b92508282039050818111156113d2576113d16111da565b5b92915050565b7f4e487b7100000000000000000000000000000000000000000000000000000000600052601260045260246000fd5b600061141282610f66565b915061141d83610f66565b92508261142d5761142c6113d8565b5b828204905092915050565b7f4e6f7420656e6f756768207072697a6500000000000000000000000000000000600082015250565b600061146e60108361115d565b915061147982611438565b602082019050919050565b6000602082019050818103600083015261149d81611461565b9050919050565b7f546f6f20736f6f6e20746f20636c6f7365000000000000000000000000000000600082015250565b60006114da60118361115d565b91506114e5826114a4565b602082019050919050565b60006020820190508181036000830152611509816114cd565b9050919050565b7f416c726561647920636c6f736564000000000000000000000000000000000000600082015250565b6000611546600e8361115d565b915061155182611510565b602082019050919050565b6000602082019050818103600083015261157581611539565b9050919050565b600061158782610f66565b915061159283610f66565b9250826115a2576115a16113d8565b5b828206905092915050565b7f4e487b7100000000000000000000000000000000000000000000000000000000600052603260045260246000fd5b60006115e782610f66565b9150600082036115fa576115f96111da565b5b600182039050919050565b7f4c6f7474657279206973206f70656e0000000000000000000000000000000000600082015250565b600061163b600f8361115d565b915061164682611605565b602082019050919050565b6000602082019050818103600083015261166a8161162e565b9050919050565b7f436c6f73696e672074696d65206d75737420626520696e20746865206675747560008201527f7265000000000000000000000000000000000000000000000000000000000000602082015250565b60006116cd60228361115d565b91506116d882611671565b604082019050919050565b600060208201905081810360008301526116fc816116c0565b905091905056fea26469706673582212200c42c1a9e75558701ffe82b2175cdf848a55b66ca6b7c32a0862121724e35a6b64736f6c63430008180033",
  "linkReferences": {},
  "deployedLinkReferences": {}
}