{
  "_format": "hh-sol-artifact-1",
  "contractName": "TokenisedBallot",
  "sourceName": "contracts/TokenisedBallot.sol",
  "abi": [
    {
      "inputs": [
        {
          "internalType": "bytes32[]",
          "name": "_proposalNames",
          "type": "bytes32[]"
        },
        {
          "internalType": "address",
          "name": "_tokenContract",
          "type": "address"
        },
        {
          "internalType": "uint256",
          "name": "_targetBlockNumber",
          "type": "uint256"
        }
      ],
      "stateMutability": "nonpayable",
      "type": "constructor"
    },
    {
      "inputs": [
        {
          "internalType": "address",
          "name": "voter",
          "type": "address"
        }
      ],
      "name": "getVoterPower",
      "outputs": [
        {
          "internalType": "uint256",
          "name": "votePower_",
          "type": "uint256"
        }
      ],
      "stateMutability": "view",
      "type": "function"
    },
    {
      "inputs": [
        {
          "internalType": "uint256",
          "name": "",
          "type": "uint256"
        }
      ],
      "name": "proposals",
      "outputs": [
        {
          "internalType": "bytes32",
          "name": "name",
          "type": "bytes32"
        },
        {
          "internalType": "uint256",
          "name": "voteCount",
          "type": "uint256"
        }
      ],
      "stateMutability": "view",
      "type": "function"
    },
    {
      "inputs": [
        {
          "internalType": "address",
          "name": "",
          "type": "address"
        }
      ],
      "name": "spentVotePower",
      "outputs": [
        {
          "internalType": "uint256",
          "name": "",
          "type": "uint256"
        }
      ],
      "stateMutability": "view",
      "type": "function"
    },
    {
      "inputs": [],
      "name": "targetBlockNumber",
      "outputs": [
        {
          "internalType": "uint256",
          "name": "",
          "type": "uint256"
        }
      ],
      "stateMutability": "view",
      "type": "function"
    },
    {
      "inputs": [],
      "name": "tokenContract",
      "outputs": [
        {
          "internalType": "contract IMyToken",
          "name": "",
          "type": "address"
        }
      ],
      "stateMutability": "view",
      "type": "function"
    },
    {
      "inputs": [
        {
          "internalType": "uint256",
          "name": "proposal",
          "type": "uint256"
        },
        {
          "internalType": "uint256",
          "name": "amount",
          "type": "uint256"
        }
      ],
      "name": "vote",
      "outputs": [],
      "stateMutability": "nonpayable",
      "type": "function"
    },
    {
      "inputs": [],
      "name": "winnerName",
      "outputs": [
        {
          "internalType": "bytes32",
          "name": "winnerName_",
          "type": "bytes32"
        }
      ],
      "stateMutability": "view",
      "type": "function"
    },
    {
      "inputs": [],
      "name": "winningProposal",
      "outputs": [
        {
          "internalType": "uint256",
          "name": "winningProposal_",
          "type": "uint256"
        }
      ],
      "stateMutability": "view",
      "type": "function"
    }
  ],
  "bytecode": "0x60806040523480156200001157600080fd5b5060405162000d3838038062000d3883398181016040528101906200003791906200037b565b816000806101000a81548173ffffffffffffffffffffffffffffffffffffffff021916908373ffffffffffffffffffffffffffffffffffffffff1602179055508060028190555060005b83518110156200010d5760016040518060400160405280868481518110620000ae57620000ad620003f6565b5b602002602001015181526020016000815250908060018154018082558091505060019003906000526020600020906002020160009091909190915060008201518160000155602082015181600101555050808060010191505062000081565b5050505062000425565b6000604051905090565b600080fd5b600080fd5b600080fd5b6000601f19601f8301169050919050565b7f4e487b7100000000000000000000000000000000000000000000000000000000600052604160045260246000fd5b6200017b8262000130565b810181811067ffffffffffffffff821117156200019d576200019c62000141565b5b80604052505050565b6000620001b262000117565b9050620001c0828262000170565b919050565b600067ffffffffffffffff821115620001e357620001e262000141565b5b602082029050602081019050919050565b600080fd5b6000819050919050565b6200020e81620001f9565b81146200021a57600080fd5b50565b6000815190506200022e8162000203565b92915050565b60006200024b6200024584620001c5565b620001a6565b90508083825260208201905060208402830185811115620002715762000270620001f4565b5b835b818110156200029e57806200028988826200021d565b84526020840193505060208101905062000273565b5050509392505050565b600082601f830112620002c057620002bf6200012b565b5b8151620002d284826020860162000234565b91505092915050565b600073ffffffffffffffffffffffffffffffffffffffff82169050919050565b60006200030882620002db565b9050919050565b6200031a81620002fb565b81146200032657600080fd5b50565b6000815190506200033a816200030f565b92915050565b6000819050919050565b620003558162000340565b81146200036157600080fd5b50565b60008151905062000375816200034a565b92915050565b60008060006060848603121562000397576200039662000121565b5b600084015167ffffffffffffffff811115620003b857620003b762000126565b5b620003c686828701620002a8565b9350506020620003d98682870162000329565b9250506040620003ec8682870162000364565b9150509250925092565b7f4e487b7100000000000000000000000000000000000000000000000000000000600052603260045260246000fd5b61090380620004356000396000f3fe608060405234801561001057600080fd5b50600436106100885760003560e01c8063609ff1bd1161005b578063609ff1bd1461012a578063b384abef14610148578063e2ba53f014610164578063e2eff6681461018257610088565b8063013cf08b1461008d5780632a8cd29e146100be57806346a38bc8146100dc57806355a373d61461010c575b600080fd5b6100a760048036038101906100a291906104f1565b6101b2565b6040516100b5929190610546565b60405180910390f35b6100c66101e6565b6040516100d3919061056f565b60405180910390f35b6100f660048036038101906100f191906105e8565b6101ec565b604051610103919061056f565b60405180910390f35b610114610204565b6040516101219190610674565b60405180910390f35b610132610228565b60405161013f919061056f565b60405180910390f35b610162600480360381019061015d919061068f565b6102aa565b005b61016c610391565b60405161017991906106cf565b60405180910390f35b61019c600480360381019061019791906105e8565b6103c5565b6040516101a9919061056f565b60405180910390f35b600181815481106101c257600080fd5b90600052602060002090600202016000915090508060000154908060010154905082565b60025481565b60036020528060005260406000206000915090505481565b60008054906101000a900473ffffffffffffffffffffffffffffffffffffffff1681565b6000806000905060005b6001805490508110156102a5578160018281548110610254576102536106ea565b5b906000526020600020906002020160010154111561029857600181815481106102805761027f6106ea565b5b90600052602060002090600202016001015491508092505b8080600101915050610232565b505090565b60006102b5336103c5565b9050818110156102fa576040517f08c379a00000000000000000000000000000000000000000000000000000000081526004016102f19061079c565b60405180910390fd5b81600360003373ffffffffffffffffffffffffffffffffffffffff1673ffffffffffffffffffffffffffffffffffffffff168152602001908152602001600020600082825461034991906107eb565b925050819055508160018481548110610365576103646106ea565b5b9060005260206000209060020201600101600082825461038591906107eb565b92505081905550505050565b6000600161039d610228565b815481106103ae576103ad6106ea565b5b906000526020600020906002020160000154905090565b6000600360008373ffffffffffffffffffffffffffffffffffffffff1673ffffffffffffffffffffffffffffffffffffffff1681526020019081526020016000205460008054906101000a900473ffffffffffffffffffffffffffffffffffffffff1673ffffffffffffffffffffffffffffffffffffffff16633a46b1a8846002546040518363ffffffff1660e01b815260040161046492919061082e565b602060405180830381865afa158015610481573d6000803e3d6000fd5b505050506040513d601f19601f820116820180604052508101906104a5919061086c565b6104af9190610899565b9050919050565b600080fd5b6000819050919050565b6104ce816104bb565b81146104d957600080fd5b50565b6000813590506104eb816104c5565b92915050565b600060208284031215610507576105066104b6565b5b6000610515848285016104dc565b91505092915050565b6000819050919050565b6105318161051e565b82525050565b610540816104bb565b82525050565b600060408201905061055b6000830185610528565b6105686020830184610537565b9392505050565b60006020820190506105846000830184610537565b92915050565b600073ffffffffffffffffffffffffffffffffffffffff82169050919050565b60006105b58261058a565b9050919050565b6105c5816105aa565b81146105d057600080fd5b50565b6000813590506105e2816105bc565b92915050565b6000602082840312156105fe576105fd6104b6565b5b600061060c848285016105d3565b91505092915050565b6000819050919050565b600061063a6106356106308461058a565b610615565b61058a565b9050919050565b600061064c8261061f565b9050919050565b600061065e82610641565b9050919050565b61066e81610653565b82525050565b60006020820190506106896000830184610665565b92915050565b600080604083850312156106a6576106a56104b6565b5b60006106b4858286016104dc565b92505060206106c5858286016104dc565b9150509250929050565b60006020820190506106e46000830184610528565b92915050565b7f4e487b7100000000000000000000000000000000000000000000000000000000600052603260045260246000fd5b600082825260208201905092915050565b7f546f6b656e697a656442616c6c6f743a20696e73756666696369656e7420766f60008201527f74696e6720706f77657200000000000000000000000000000000000000000000602082015250565b6000610786602a83610719565b91506107918261072a565b604082019050919050565b600060208201905081810360008301526107b581610779565b9050919050565b7f4e487b7100000000000000000000000000000000000000000000000000000000600052601160045260246000fd5b60006107f6826104bb565b9150610801836104bb565b9250828201905080821115610819576108186107bc565b5b92915050565b610828816105aa565b82525050565b6000604082019050610843600083018561081f565b6108506020830184610537565b9392505050565b600081519050610866816104c5565b92915050565b600060208284031215610882576108816104b6565b5b600061089084828501610857565b91505092915050565b60006108a4826104bb565b91506108af836104bb565b92508282039050818111156108c7576108c66107bc565b5b9291505056fea264697066735822122069d50e2464497c65399a0defefc8decbe99fe5d2d110ecedaadc9f767dd0d07f64736f6c63430008180033",
  "linkReferences": {},
  "deployedLinkReferences": {}
}